{
  "_format": "hh-sol-artifact-1",
  "contractName": "UnityVibeToken",
  "sourceName": "contracts/UnityVibeToken.sol",
  "abi": [
    {
      "inputs": [],
      "stateMutability": "nonpayable",
      "type": "constructor"
    },
    {
      "anonymous": false,
      "inputs": [
        {
          "indexed": true,
          "internalType": "address",
          "name": "owner",
          "type": "address"
        },
        {
          "indexed": true,
          "internalType": "address",
          "name": "spender",
          "type": "address"
        },
        {
          "indexed": false,
          "internalType": "uint256",
          "name": "value",
          "type": "uint256"
        }
      ],
      "name": "Approval",
      "type": "event"
    },
    {
      "anonymous": false,
      "inputs": [
        {
          "indexed": false,
          "internalType": "address",
          "name": "account",
          "type": "address"
        }
      ],
      "name": "Paused",
      "type": "event"
    },
    {
      "anonymous": false,
      "inputs": [
        {
          "indexed": true,
          "internalType": "bytes32",
          "name": "role",
          "type": "bytes32"
        },
        {
          "indexed": true,
          "internalType": "bytes32",
          "name": "previousAdminRole",
          "type": "bytes32"
        },
        {
          "indexed": true,
          "internalType": "bytes32",
          "name": "newAdminRole",
          "type": "bytes32"
        }
      ],
      "name": "RoleAdminChanged",
      "type": "event"
    },
    {
      "anonymous": false,
      "inputs": [
        {
          "indexed": true,
          "internalType": "bytes32",
          "name": "role",
          "type": "bytes32"
        },
        {
          "indexed": true,
          "internalType": "address",
          "name": "account",
          "type": "address"
        },
        {
          "indexed": true,
          "internalType": "address",
          "name": "sender",
          "type": "address"
        }
      ],
      "name": "RoleGranted",
      "type": "event"
    },
    {
      "anonymous": false,
      "inputs": [
        {
          "indexed": true,
          "internalType": "bytes32",
          "name": "role",
          "type": "bytes32"
        },
        {
          "indexed": true,
          "internalType": "address",
          "name": "account",
          "type": "address"
        },
        {
          "indexed": true,
          "internalType": "address",
          "name": "sender",
          "type": "address"
        }
      ],
      "name": "RoleRevoked",
      "type": "event"
    },
    {
      "anonymous": false,
      "inputs": [
        {
          "indexed": true,
          "internalType": "address",
          "name": "from",
          "type": "address"
        },
        {
          "indexed": true,
          "internalType": "address",
          "name": "to",
          "type": "address"
        },
        {
          "indexed": false,
          "internalType": "uint256",
          "name": "value",
          "type": "uint256"
        }
      ],
      "name": "Transfer",
      "type": "event"
    },
    {
      "anonymous": false,
      "inputs": [
        {
          "indexed": false,
          "internalType": "address",
          "name": "account",
          "type": "address"
        }
      ],
      "name": "Unpaused",
      "type": "event"
    },
    {
      "inputs": [],
      "name": "DEFAULT_ADMIN_ROLE",
      "outputs": [
        {
          "internalType": "bytes32",
          "name": "",
          "type": "bytes32"
        }
      ],
      "stateMutability": "view",
      "type": "function"
    },
    {
      "inputs": [],
      "name": "MINTER_ROLE",
      "outputs": [
        {
          "internalType": "bytes32",
          "name": "",
          "type": "bytes32"
        }
      ],
      "stateMutability": "view",
      "type": "function"
    },
    {
      "inputs": [],
      "name": "PAUSER_ROLE",
      "outputs": [
        {
          "internalType": "bytes32",
          "name": "",
          "type": "bytes32"
        }
      ],
      "stateMutability": "view",
      "type": "function"
    },
    {
      "inputs": [
        {
          "internalType": "address",
          "name": "owner",
          "type": "address"
        },
        {
          "internalType": "address",
          "name": "spender",
          "type": "address"
        }
      ],
      "name": "allowance",
      "outputs": [
        {
          "internalType": "uint256",
          "name": "",
          "type": "uint256"
        }
      ],
      "stateMutability": "view",
      "type": "function"
    },
    {
      "inputs": [
        {
          "internalType": "address",
          "name": "spender",
          "type": "address"
        },
        {
          "internalType": "uint256",
          "name": "amount",
          "type": "uint256"
        }
      ],
      "name": "approve",
      "outputs": [
        {
          "internalType": "bool",
          "name": "",
          "type": "bool"
        }
      ],
      "stateMutability": "nonpayable",
      "type": "function"
    },
    {
      "inputs": [
        {
          "internalType": "address",
          "name": "account",
          "type": "address"
        }
      ],
      "name": "balanceOf",
      "outputs": [
        {
          "internalType": "uint256",
          "name": "",
          "type": "uint256"
        }
      ],
      "stateMutability": "view",
      "type": "function"
    },
    {
      "inputs": [
        {
          "internalType": "uint256",
          "name": "amount",
          "type": "uint256"
        }
      ],
      "name": "burn",
      "outputs": [],
      "stateMutability": "nonpayable",
      "type": "function"
    },
    {
      "inputs": [
        {
          "internalType": "address",
          "name": "account",
          "type": "address"
        },
        {
          "internalType": "uint256",
          "name": "amount",
          "type": "uint256"
        }
      ],
      "name": "burnFrom",
      "outputs": [],
      "stateMutability": "nonpayable",
      "type": "function"
    },
    {
      "inputs": [],
      "name": "decimals",
      "outputs": [
        {
          "internalType": "uint8",
          "name": "",
          "type": "uint8"
        }
      ],
      "stateMutability": "view",
      "type": "function"
    },
    {
      "inputs": [
        {
          "internalType": "address",
          "name": "spender",
          "type": "address"
        },
        {
          "internalType": "uint256",
          "name": "subtractedValue",
          "type": "uint256"
        }
      ],
      "name": "decreaseAllowance",
      "outputs": [
        {
          "internalType": "bool",
          "name": "",
          "type": "bool"
        }
      ],
      "stateMutability": "nonpayable",
      "type": "function"
    },
    {
      "inputs": [
        {
          "internalType": "bytes32",
          "name": "role",
          "type": "bytes32"
        }
      ],
      "name": "getRoleAdmin",
      "outputs": [
        {
          "internalType": "bytes32",
          "name": "",
          "type": "bytes32"
        }
      ],
      "stateMutability": "view",
      "type": "function"
    },
    {
      "inputs": [
        {
          "internalType": "bytes32",
          "name": "role",
          "type": "bytes32"
        },
        {
          "internalType": "address",
          "name": "account",
          "type": "address"
        }
      ],
      "name": "grantRole",
      "outputs": [],
      "stateMutability": "nonpayable",
      "type": "function"
    },
    {
      "inputs": [
        {
          "internalType": "bytes32",
          "name": "role",
          "type": "bytes32"
        },
        {
          "internalType": "address",
          "name": "account",
          "type": "address"
        }
      ],
      "name": "hasRole",
      "outputs": [
        {
          "internalType": "bool",
          "name": "",
          "type": "bool"
        }
      ],
      "stateMutability": "view",
      "type": "function"
    },
    {
      "inputs": [
        {
          "internalType": "address",
          "name": "spender",
          "type": "address"
        },
        {
          "internalType": "uint256",
          "name": "addedValue",
          "type": "uint256"
        }
      ],
      "name": "increaseAllowance",
      "outputs": [
        {
          "internalType": "bool",
          "name": "",
          "type": "bool"
        }
      ],
      "stateMutability": "nonpayable",
      "type": "function"
    },
    {
      "inputs": [
        {
          "internalType": "address",
          "name": "to",
          "type": "address"
        },
        {
          "internalType": "uint256",
          "name": "amount",
          "type": "uint256"
        }
      ],
      "name": "mint",
      "outputs": [],
      "stateMutability": "nonpayable",
      "type": "function"
    },
    {
      "inputs": [],
      "name": "name",
      "outputs": [
        {
          "internalType": "string",
          "name": "",
          "type": "string"
        }
      ],
      "stateMutability": "view",
      "type": "function"
    },
    {
      "inputs": [],
      "name": "pause",
      "outputs": [],
      "stateMutability": "nonpayable",
      "type": "function"
    },
    {
      "inputs": [],
      "name": "paused",
      "outputs": [
        {
          "internalType": "bool",
          "name": "",
          "type": "bool"
        }
      ],
      "stateMutability": "view",
      "type": "function"
    },
    {
      "inputs": [
        {
          "internalType": "bytes32",
          "name": "role",
          "type": "bytes32"
        },
        {
          "internalType": "address",
          "name": "account",
          "type": "address"
        }
      ],
      "name": "renounceRole",
      "outputs": [],
      "stateMutability": "nonpayable",
      "type": "function"
    },
    {
      "inputs": [
        {
          "internalType": "bytes32",
          "name": "role",
          "type": "bytes32"
        },
        {
          "internalType": "address",
          "name": "account",
          "type": "address"
        }
      ],
      "name": "revokeRole",
      "outputs": [],
      "stateMutability": "nonpayable",
      "type": "function"
    },
    {
      "inputs": [
        {
          "internalType": "bytes4",
          "name": "_interfaceId",
          "type": "bytes4"
        }
      ],
      "name": "supportsInterface",
      "outputs": [
        {
          "internalType": "bool",
          "name": "",
          "type": "bool"
        }
      ],
      "stateMutability": "view",
      "type": "function"
    },
    {
      "inputs": [],
      "name": "symbol",
      "outputs": [
        {
          "internalType": "string",
          "name": "",
          "type": "string"
        }
      ],
      "stateMutability": "view",
      "type": "function"
    },
    {
      "inputs": [],
      "name": "totalSupply",
      "outputs": [
        {
          "internalType": "uint256",
          "name": "",
          "type": "uint256"
        }
      ],
      "stateMutability": "view",
      "type": "function"
    },
    {
      "inputs": [
        {
          "internalType": "address",
          "name": "to",
          "type": "address"
        },
        {
          "internalType": "uint256",
          "name": "amount",
          "type": "uint256"
        }
      ],
      "name": "transfer",
      "outputs": [
        {
          "internalType": "bool",
          "name": "",
          "type": "bool"
        }
      ],
      "stateMutability": "nonpayable",
      "type": "function"
    },
    {
      "inputs": [
        {
          "internalType": "address",
          "name": "from",
          "type": "address"
        },
        {
          "internalType": "address",
          "name": "to",
          "type": "address"
        },
        {
          "internalType": "uint256",
          "name": "amount",
          "type": "uint256"
        }
      ],
      "name": "transferFrom",
      "outputs": [
        {
          "internalType": "bool",
          "name": "",
          "type": "bool"
        }
      ],
      "stateMutability": "nonpayable",
      "type": "function"
    },
    {
      "inputs": [],
      "name": "unpause",
      "outputs": [],
      "stateMutability": "nonpayable",
      "type": "function"
    }
  ],
  "bytecode": "0x60806040523480156200001157600080fd5b506040518060400160405280600e81526020017f556e69747956696265546f6b656e0000000000000000000000000000000000008152506040518060400160405280600381526020017f5556540000000000000000000000000000000000000000000000000000000000815250816003908051906020019062000096929190620002b1565b508060049080519060200190620000af929190620002b1565b5050506000600560006101000a81548160ff021916908315150217905550620000e26000801b336200014c60201b60201c565b620001147f65d7a28e3265b37a6474929f336521b332c1681b933f6cb9f3376673440d862a336200014c60201b60201c565b620001467f9f2df0fed2c77648de5860a4cc508cd0818c85b8b8a1ab4ceeef8d981c8956a6336200014c60201b60201c565b620003c6565b6200015e82826200023e60201b60201c565b6200023a5760016006600084815260200190815260200160002060000160008373ffffffffffffffffffffffffffffffffffffffff1673ffffffffffffffffffffffffffffffffffffffff16815260200190815260200160002060006101000a81548160ff021916908315150217905550620001df620002a960201b60201c565b73ffffffffffffffffffffffffffffffffffffffff168173ffffffffffffffffffffffffffffffffffffffff16837f2f8788117e7eff1d82e926ec794901d17c78024a50270940304540a733656f0d60405160405180910390a45b5050565b60006006600084815260200190815260200160002060000160008373ffffffffffffffffffffffffffffffffffffffff1673ffffffffffffffffffffffffffffffffffffffff16815260200190815260200160002060009054906101000a900460ff16905092915050565b600033905090565b828054620002bf9062000361565b90600052602060002090601f016020900481019282620002e357600085556200032f565b82601f10620002fe57805160ff19168380011785556200032f565b828001600101855582156200032f579182015b828111156200032e57825182559160200191906001019062000311565b5b5090506200033e919062000342565b5090565b5b808211156200035d57600081600090555060010162000343565b5090565b600060028204905060018216806200037a57607f821691505b6020821081141562000391576200039062000397565b5b50919050565b7f4e487b7100000000000000000000000000000000000000000000000000000000600052602260045260246000fd5b612b5080620003d66000396000f3fe608060405234801561001057600080fd5b506004361061018e5760003560e01c80635c975abb116100de578063a217fddf11610097578063d539139311610071578063d539139314610497578063d547741f146104b5578063dd62ed3e146104d1578063e63ab1e9146105015761018e565b8063a217fddf14610419578063a457c2d714610437578063a9059cbb146104675761018e565b80635c975abb1461035757806370a082311461037557806379cc6790146103a55780638456cb59146103c157806391d14854146103cb57806395d89b41146103fb5761018e565b80632f2ff15d1161014b578063395093511161012557806339509351146102e55780633f4ba83a1461031557806340c10f191461031f57806342966c681461033b5761018e565b80632f2ff15d1461028f578063313ce567146102ab57806336568abe146102c95761018e565b806301ffc9a71461019357806306fdde03146101c3578063095ea7b3146101e157806318160ddd1461021157806323b872dd1461022f578063248a9ca31461025f575b600080fd5b6101ad60048036038101906101a89190611e6a565b61051f565b6040516101ba91906121f6565b60405180910390f35b6101cb610601565b6040516101d8919061222c565b60405180910390f35b6101fb60048036038101906101f69190611dc9565b610693565b60405161020891906121f6565b60405180910390f35b6102196106b6565b604051610226919061240e565b60405180910390f35b61024960048036038101906102449190611d7a565b6106c0565b60405161025691906121f6565b60405180910390f35b61027960048036038101906102749190611e05565b6106ef565b6040516102869190612211565b60405180910390f35b6102a960048036038101906102a49190611e2e565b61070f565b005b6102b3610738565b6040516102c09190612429565b60405180910390f35b6102e360048036038101906102de9190611e2e565b610741565b005b6102ff60048036038101906102fa9190611dc9565b6107c4565b60405161030c91906121f6565b60405180910390f35b61031d61086e565b005b61033960048036038101906103349190611dc9565b6108ab565b005b61035560048036038101906103509190611e93565b6108ec565b005b61035f610900565b60405161036c91906121f6565b60405180910390f35b61038f600480360381019061038a9190611d15565b610917565b60405161039c919061240e565b60405180910390f35b6103bf60048036038101906103ba9190611dc9565b61095f565b005b6103c961097f565b005b6103e560048036038101906103e09190611e2e565b6109bc565b6040516103f291906121f6565b60405180910390f35b610403610a27565b604051610410919061222c565b60405180910390f35b610421610ab9565b60405161042e9190612211565b60405180910390f35b610451600480360381019061044c9190611dc9565b610ac0565b60405161045e91906121f6565b60405180910390f35b610481600480360381019061047c9190611dc9565b610baa565b60405161048e91906121f6565b60405180910390f35b61049f610bcd565b6040516104ac9190612211565b60405180910390f35b6104cf60048036038101906104ca9190611e2e565b610bf1565b005b6104eb60048036038101906104e69190611d3e565b610c1a565b6040516104f8919061240e565b60405180910390f35b610509610ca1565b6040516105169190612211565b60405180910390f35b60007f01ffc9a7000000000000000000000000000000000000000000000000000000007bffffffffffffffffffffffffffffffffffffffffffffffffffffffff1916827bffffffffffffffffffffffffffffffffffffffffffffffffffffffff191614806105ea57507f36372b07000000000000000000000000000000000000000000000000000000007bffffffffffffffffffffffffffffffffffffffffffffffffffffffff1916827bffffffffffffffffffffffffffffffffffffffffffffffffffffffff1916145b806105fa57506105f982610cc5565b5b9050919050565b60606003805461061090612637565b80601f016020809104026020016040519081016040528092919081815260200182805461063c90612637565b80156106895780601f1061065e57610100808354040283529160200191610689565b820191906000526020600020905b81548152906001019060200180831161066c57829003601f168201915b5050505050905090565b60008061069e610d3f565b90506106ab818585610d47565b600191505092915050565b6000600254905090565b6000806106cb610d3f565b90506106d8858285610f12565b6106e3858585610f9e565b60019150509392505050565b600060066000838152602001908152602001600020600101549050919050565b610718826106ef565b61072981610724610d3f565b61121f565b61073383836112bc565b505050565b60006012905090565b610749610d3f565b73ffffffffffffffffffffffffffffffffffffffff168173ffffffffffffffffffffffffffffffffffffffff16146107b6576040517f08c379a00000000000000000000000000000000000000000000000000000000081526004016107ad906123ce565b60405180910390fd5b6107c0828261139d565b5050565b6000806107cf610d3f565b9050610863818585600160008673ffffffffffffffffffffffffffffffffffffffff1673ffffffffffffffffffffffffffffffffffffffff16815260200190815260200160002060008973ffffffffffffffffffffffffffffffffffffffff1673ffffffffffffffffffffffffffffffffffffffff1681526020019081526020016000205461085e919061246b565b610d47565b600191505092915050565b7f65d7a28e3265b37a6474929f336521b332c1681b933f6cb9f3376673440d862a6108a08161089b610d3f565b61121f565b6108a861147f565b50565b7f9f2df0fed2c77648de5860a4cc508cd0818c85b8b8a1ab4ceeef8d981c8956a66108dd816108d8610d3f565b61121f565b6108e78383611521565b505050565b6108fd6108f7610d3f565b82611681565b50565b6000600560009054906101000a900460ff16905090565b60008060008373ffffffffffffffffffffffffffffffffffffffff1673ffffffffffffffffffffffffffffffffffffffff168152602001908152602001600020549050919050565b6109718261096b610d3f565b83610f12565b61097b8282611681565b5050565b7f65d7a28e3265b37a6474929f336521b332c1681b933f6cb9f3376673440d862a6109b1816109ac610d3f565b61121f565b6109b9611858565b50565b60006006600084815260200190815260200160002060000160008373ffffffffffffffffffffffffffffffffffffffff1673ffffffffffffffffffffffffffffffffffffffff16815260200190815260200160002060009054906101000a900460ff16905092915050565b606060048054610a3690612637565b80601f0160208091040260200160405190810160405280929190818152602001828054610a6290612637565b8015610aaf5780601f10610a8457610100808354040283529160200191610aaf565b820191906000526020600020905b815481529060010190602001808311610a9257829003601f168201915b5050505050905090565b6000801b81565b600080610acb610d3f565b90506000600160008373ffffffffffffffffffffffffffffffffffffffff1673ffffffffffffffffffffffffffffffffffffffff16815260200190815260200160002060008673ffffffffffffffffffffffffffffffffffffffff1673ffffffffffffffffffffffffffffffffffffffff16815260200190815260200160002054905083811015610b91576040517f08c379a0000000000000000000000000000000000000000000000000000000008152600401610b88906123ae565b60405180910390fd5b610b9e8286868403610d47565b60019250505092915050565b600080610bb5610d3f565b9050610bc2818585610f9e565b600191505092915050565b7f9f2df0fed2c77648de5860a4cc508cd0818c85b8b8a1ab4ceeef8d981c8956a681565b610bfa826106ef565b610c0b81610c06610d3f565b61121f565b610c15838361139d565b505050565b6000600160008473ffffffffffffffffffffffffffffffffffffffff1673ffffffffffffffffffffffffffffffffffffffff16815260200190815260200160002060008373ffffffffffffffffffffffffffffffffffffffff1673ffffffffffffffffffffffffffffffffffffffff16815260200190815260200160002054905092915050565b7f65d7a28e3265b37a6474929f336521b332c1681b933f6cb9f3376673440d862a81565b60007f7965db0b000000000000000000000000000000000000000000000000000000007bffffffffffffffffffffffffffffffffffffffffffffffffffffffff1916827bffffffffffffffffffffffffffffffffffffffffffffffffffffffff19161480610d385750610d37826118fb565b5b9050919050565b600033905090565b600073ffffffffffffffffffffffffffffffffffffffff168373ffffffffffffffffffffffffffffffffffffffff161415610db7576040517f08c379a0000000000000000000000000000000000000000000000000000000008152600401610dae9061238e565b60405180910390fd5b600073ffffffffffffffffffffffffffffffffffffffff168273ffffffffffffffffffffffffffffffffffffffff161415610e27576040517f08c379a0000000000000000000000000000000000000000000000000000000008152600401610e1e906122ce565b60405180910390fd5b80600160008573ffffffffffffffffffffffffffffffffffffffff1673ffffffffffffffffffffffffffffffffffffffff16815260200190815260200160002060008473ffffffffffffffffffffffffffffffffffffffff1673ffffffffffffffffffffffffffffffffffffffff168152602001908152602001600020819055508173ffffffffffffffffffffffffffffffffffffffff168373ffffffffffffffffffffffffffffffffffffffff167f8c5be1e5ebec7d5bd14f71427d1e84f3dd0314c0f7b2291e5b200ac8c7c3b92583604051610f05919061240e565b60405180910390a3505050565b6000610f1e8484610c1a565b90507fffffffffffffffffffffffffffffffffffffffffffffffffffffffffffffffff8114610f985781811015610f8a576040517f08c379a0000000000000000000000000000000000000000000000000000000008152600401610f81906122ee565b60405180910390fd5b610f978484848403610d47565b5b50505050565b600073ffffffffffffffffffffffffffffffffffffffff168373ffffffffffffffffffffffffffffffffffffffff16141561100e576040517f08c379a00000000000000000000000000000000000000000000000000000000081526004016110059061236e565b60405180910390fd5b600073ffffffffffffffffffffffffffffffffffffffff168273ffffffffffffffffffffffffffffffffffffffff16141561107e576040517f08c379a00000000000000000000000000000000000000000000000000000000081526004016110759061226e565b60405180910390fd5b611089838383611965565b60008060008573ffffffffffffffffffffffffffffffffffffffff1673ffffffffffffffffffffffffffffffffffffffff1681526020019081526020016000205490508181101561110f576040517f08c379a00000000000000000000000000000000000000000000000000000000081526004016111069061230e565b60405180910390fd5b8181036000808673ffffffffffffffffffffffffffffffffffffffff1673ffffffffffffffffffffffffffffffffffffffff16815260200190815260200160002081905550816000808573ffffffffffffffffffffffffffffffffffffffff1673ffffffffffffffffffffffffffffffffffffffff16815260200190815260200160002060008282546111a2919061246b565b925050819055508273ffffffffffffffffffffffffffffffffffffffff168473ffffffffffffffffffffffffffffffffffffffff167fddf252ad1be2c89b69c2b068fc378daa952ba7f163c4a11628f55a4df523b3ef84604051611206919061240e565b60405180910390a36112198484846119bd565b50505050565b61122982826109bc565b6112b85761124e8173ffffffffffffffffffffffffffffffffffffffff1660146119c2565b61125c8360001c60206119c2565b60405160200161126d9291906121a1565b6040516020818303038152906040526040517f08c379a00000000000000000000000000000000000000000000000000000000081526004016112af919061222c565b60405180910390fd5b5050565b6112c682826109bc565b6113995760016006600084815260200190815260200160002060000160008373ffffffffffffffffffffffffffffffffffffffff1673ffffffffffffffffffffffffffffffffffffffff16815260200190815260200160002060006101000a81548160ff02191690831515021790555061133e610d3f565b73ffffffffffffffffffffffffffffffffffffffff168173ffffffffffffffffffffffffffffffffffffffff16837f2f8788117e7eff1d82e926ec794901d17c78024a50270940304540a733656f0d60405160405180910390a45b5050565b6113a782826109bc565b1561147b5760006006600084815260200190815260200160002060000160008373ffffffffffffffffffffffffffffffffffffffff1673ffffffffffffffffffffffffffffffffffffffff16815260200190815260200160002060006101000a81548160ff021916908315150217905550611420610d3f565b73ffffffffffffffffffffffffffffffffffffffff168173ffffffffffffffffffffffffffffffffffffffff16837ff6391f5c32d9c69d2a47ea670b442974b53935d1edc7fd64eb21e047a839171b60405160405180910390a45b5050565b611487610900565b6114c6576040517f08c379a00000000000000000000000000000000000000000000000000000000081526004016114bd9061228e565b60405180910390fd5b6000600560006101000a81548160ff0219169083151502179055507f5db9ee0a495bf2e6ff9c91a7834c1ba4fdd244a5e8aa4e537bd38aeae4b073aa61150a610d3f565b60405161151791906121db565b60405180910390a1565b600073ffffffffffffffffffffffffffffffffffffffff168273ffffffffffffffffffffffffffffffffffffffff161415611591576040517f08c379a0000000000000000000000000000000000000000000000000000000008152600401611588906123ee565b60405180910390fd5b61159d60008383611965565b80600260008282546115af919061246b565b92505081905550806000808473ffffffffffffffffffffffffffffffffffffffff1673ffffffffffffffffffffffffffffffffffffffff1681526020019081526020016000206000828254611604919061246b565b925050819055508173ffffffffffffffffffffffffffffffffffffffff16600073ffffffffffffffffffffffffffffffffffffffff167fddf252ad1be2c89b69c2b068fc378daa952ba7f163c4a11628f55a4df523b3ef83604051611669919061240e565b60405180910390a361167d600083836119bd565b5050565b600073ffffffffffffffffffffffffffffffffffffffff168273ffffffffffffffffffffffffffffffffffffffff1614156116f1576040517f08c379a00000000000000000000000000000000000000000000000000000000081526004016116e89061234e565b60405180910390fd5b6116fd82600083611965565b60008060008473ffffffffffffffffffffffffffffffffffffffff1673ffffffffffffffffffffffffffffffffffffffff16815260200190815260200160002054905081811015611783576040517f08c379a000000000000000000000000000000000000000000000000000000000815260040161177a906122ae565b60405180910390fd5b8181036000808573ffffffffffffffffffffffffffffffffffffffff1673ffffffffffffffffffffffffffffffffffffffff1681526020019081526020016000208190555081600260008282546117da919061251b565b92505081905550600073ffffffffffffffffffffffffffffffffffffffff168373ffffffffffffffffffffffffffffffffffffffff167fddf252ad1be2c89b69c2b068fc378daa952ba7f163c4a11628f55a4df523b3ef8460405161183f919061240e565b60405180910390a3611853836000846119bd565b505050565b611860610900565b156118a0576040517f08c379a00000000000000000000000000000000000000000000000000000000081526004016118979061232e565b60405180910390fd5b6001600560006101000a81548160ff0219169083151502179055507f62e78cea01bee320cd4e420270b5ea74000d11b0c9f74754ebdbfc544b05a2586118e4610d3f565b6040516118f191906121db565b60405180910390a1565b60007f01ffc9a7000000000000000000000000000000000000000000000000000000007bffffffffffffffffffffffffffffffffffffffffffffffffffffffff1916827bffffffffffffffffffffffffffffffffffffffffffffffffffffffff1916149050919050565b61196d610900565b156119ad576040517f08c379a00000000000000000000000000000000000000000000000000000000081526004016119a49061232e565b60405180910390fd5b6119b8838383611cbc565b505050565b505050565b6060600060028360026119d591906124c1565b6119df919061246b565b67ffffffffffffffff811115611a1e577f4e487b7100000000000000000000000000000000000000000000000000000000600052604160045260246000fd5b6040519080825280601f01601f191660200182016040528015611a505781602001600182028036833780820191505090505b5090507f300000000000000000000000000000000000000000000000000000000000000081600081518110611aae577f4e487b7100000000000000000000000000000000000000000000000000000000600052603260045260246000fd5b60200101907effffffffffffffffffffffffffffffffffffffffffffffffffffffffffffff1916908160001a9053507f780000000000000000000000000000000000000000000000000000000000000081600181518110611b38577f4e487b7100000000000000000000000000000000000000000000000000000000600052603260045260246000fd5b60200101907effffffffffffffffffffffffffffffffffffffffffffffffffffffffffffff1916908160001a90535060006001846002611b7891906124c1565b611b82919061246b565b90505b6001811115611c6e577f3031323334353637383961626364656600000000000000000000000000000000600f861660108110611bea577f4e487b7100000000000000000000000000000000000000000000000000000000600052603260045260246000fd5b1a60f81b828281518110611c27577f4e487b7100000000000000000000000000000000000000000000000000000000600052603260045260246000fd5b60200101907effffffffffffffffffffffffffffffffffffffffffffffffffffffffffffff1916908160001a905350600485901c945080611c679061260d565b9050611b85565b5060008414611cb2576040517f08c379a0000000000000000000000000000000000000000000000000000000008152600401611ca99061224e565b60405180910390fd5b8091505092915050565b505050565b600081359050611cd081612abe565b92915050565b600081359050611ce581612ad5565b92915050565b600081359050611cfa81612aec565b92915050565b600081359050611d0f81612b03565b92915050565b600060208284031215611d2757600080fd5b6000611d3584828501611cc1565b91505092915050565b60008060408385031215611d5157600080fd5b6000611d5f85828601611cc1565b9250506020611d7085828601611cc1565b9150509250929050565b600080600060608486031215611d8f57600080fd5b6000611d9d86828701611cc1565b9350506020611dae86828701611cc1565b9250506040611dbf86828701611d00565b9150509250925092565b60008060408385031215611ddc57600080fd5b6000611dea85828601611cc1565b9250506020611dfb85828601611d00565b9150509250929050565b600060208284031215611e1757600080fd5b6000611e2584828501611cd6565b91505092915050565b60008060408385031215611e4157600080fd5b6000611e4f85828601611cd6565b9250506020611e6085828601611cc1565b9150509250929050565b600060208284031215611e7c57600080fd5b6000611e8a84828501611ceb565b91505092915050565b600060208284031215611ea557600080fd5b6000611eb384828501611d00565b91505092915050565b611ec58161254f565b82525050565b611ed481612561565b82525050565b611ee38161256d565b82525050565b6000611ef482612444565b611efe818561244f565b9350611f0e8185602086016125da565b611f17816126c7565b840191505092915050565b6000611f2d82612444565b611f378185612460565b9350611f478185602086016125da565b80840191505092915050565b6000611f6060208361244f565b9150611f6b826126d8565b602082019050919050565b6000611f8360238361244f565b9150611f8e82612701565b604082019050919050565b6000611fa660148361244f565b9150611fb182612750565b602082019050919050565b6000611fc960228361244f565b9150611fd482612779565b604082019050919050565b6000611fec60228361244f565b9150611ff7826127c8565b604082019050919050565b600061200f601d8361244f565b915061201a82612817565b602082019050919050565b600061203260268361244f565b915061203d82612840565b604082019050919050565b600061205560108361244f565b91506120608261288f565b602082019050919050565b600061207860218361244f565b9150612083826128b8565b604082019050919050565b600061209b60258361244f565b91506120a682612907565b604082019050919050565b60006120be60248361244f565b91506120c982612956565b604082019050919050565b60006120e1601783612460565b91506120ec826129a5565b601782019050919050565b600061210460258361244f565b915061210f826129ce565b604082019050919050565b6000612127601183612460565b915061213282612a1d565b601182019050919050565b600061214a602f8361244f565b915061215582612a46565b604082019050919050565b600061216d601f8361244f565b915061217882612a95565b602082019050919050565b61218c816125c3565b82525050565b61219b816125cd565b82525050565b60006121ac826120d4565b91506121b88285611f22565b91506121c38261211a565b91506121cf8284611f22565b91508190509392505050565b60006020820190506121f06000830184611ebc565b92915050565b600060208201905061220b6000830184611ecb565b92915050565b60006020820190506122266000830184611eda565b92915050565b600060208201905081810360008301526122468184611ee9565b905092915050565b6000602082019050818103600083015261226781611f53565b9050919050565b6000602082019050818103600083015261228781611f76565b9050919050565b600060208201905081810360008301526122a781611f99565b9050919050565b600060208201905081810360008301526122c781611fbc565b9050919050565b600060208201905081810360008301526122e781611fdf565b9050919050565b6000602082019050818103600083015261230781612002565b9050919050565b6000602082019050818103600083015261232781612025565b9050919050565b6000602082019050818103600083015261234781612048565b9050919050565b600060208201905081810360008301526123678161206b565b9050919050565b600060208201905081810360008301526123878161208e565b9050919050565b600060208201905081810360008301526123a7816120b1565b9050919050565b600060208201905081810360008301526123c7816120f7565b9050919050565b600060208201905081810360008301526123e78161213d565b9050919050565b6000602082019050818103600083015261240781612160565b9050919050565b60006020820190506124236000830184612183565b92915050565b600060208201905061243e6000830184612192565b92915050565b600081519050919050565b600082825260208201905092915050565b600081905092915050565b6000612476826125c3565b9150612481836125c3565b9250827fffffffffffffffffffffffffffffffffffffffffffffffffffffffffffffffff038211156124b6576124b5612669565b5b828201905092915050565b60006124cc826125c3565b91506124d7836125c3565b9250817fffffffffffffffffffffffffffffffffffffffffffffffffffffffffffffffff04831182151516156125105761250f612669565b5b828202905092915050565b6000612526826125c3565b9150612531836125c3565b92508282101561254457612543612669565b5b828203905092915050565b600061255a826125a3565b9050919050565b60008115159050919050565b6000819050919050565b60007fffffffff0000000000000000000000000000000000000000000000000000000082169050919050565b600073ffffffffffffffffffffffffffffffffffffffff82169050919050565b6000819050919050565b600060ff82169050919050565b60005b838110156125f85780820151818401526020810190506125dd565b83811115612607576000848401525b50505050565b6000612618826125c3565b9150600082141561262c5761262b612669565b5b600182039050919050565b6000600282049050600182168061264f57607f821691505b6020821081141561266357612662612698565b5b50919050565b7f4e487b7100000000000000000000000000000000000000000000000000000000600052601160045260246000fd5b7f4e487b7100000000000000000000000000000000000000000000000000000000600052602260045260246000fd5b6000601f19601f8301169050919050565b7f537472696e67733a20686578206c656e67746820696e73756666696369656e74600082015250565b7f45524332303a207472616e7366657220746f20746865207a65726f206164647260008201527f6573730000000000000000000000000000000000000000000000000000000000602082015250565b7f5061757361626c653a206e6f7420706175736564000000000000000000000000600082015250565b7f45524332303a206275726e20616d6f756e7420657863656564732062616c616e60008201527f6365000000000000000000000000000000000000000000000000000000000000602082015250565b7f45524332303a20617070726f766520746f20746865207a65726f20616464726560008201527f7373000000000000000000000000000000000000000000000000000000000000602082015250565b7f45524332303a20696e73756666696369656e7420616c6c6f77616e6365000000600082015250565b7f45524332303a207472616e7366657220616d6f756e742065786365656473206260008201527f616c616e63650000000000000000000000000000000000000000000000000000602082015250565b7f5061757361626c653a2070617573656400000000000000000000000000000000600082015250565b7f45524332303a206275726e2066726f6d20746865207a65726f2061646472657360008201527f7300000000000000000000000000000000000000000000000000000000000000602082015250565b7f45524332303a207472616e736665722066726f6d20746865207a65726f20616460008201527f6472657373000000000000000000000000000000000000000000000000000000602082015250565b7f45524332303a20617070726f76652066726f6d20746865207a65726f2061646460008201527f7265737300000000000000000000000000000000000000000000000000000000602082015250565b7f416363657373436f6e74726f6c3a206163636f756e7420000000000000000000600082015250565b7f45524332303a2064656372656173656420616c6c6f77616e63652062656c6f7760008201527f207a65726f000000000000000000000000000000000000000000000000000000602082015250565b7f206973206d697373696e6720726f6c6520000000000000000000000000000000600082015250565b7f416363657373436f6e74726f6c3a2063616e206f6e6c792072656e6f756e636560008201527f20726f6c657320666f722073656c660000000000000000000000000000000000602082015250565b7f45524332303a206d696e7420746f20746865207a65726f206164647265737300600082015250565b612ac78161254f565b8114612ad257600080fd5b50565b612ade8161256d565b8114612ae957600080fd5b50565b612af581612577565b8114612b0057600080fd5b50565b612b0c816125c3565b8114612b1757600080fd5b5056fea2646970667358221220378267ff86a34dace10d1526797ff8afd8d737499f5d4b3174e0b5a131cd371064736f6c63430008040033",
  "linkReferences": {},
  "deployedLinkReferences": {}
}